{
  "contractName": "myEth",
  "abi": [
    {
      "inputs": [],
      "stateMutability": "nonpayable",
      "type": "constructor"
    },
    {
      "inputs": [
        {
          "internalType": "uint256",
          "name": "_amount",
          "type": "uint256"
        }
      ],
      "name": "mint",
      "outputs": [],
      "stateMutability": "nonpayable",
      "type": "function"
    },
    {
      "inputs": [
        {
          "internalType": "address",
          "name": "_reciever",
          "type": "address"
        },
        {
          "internalType": "uint256",
          "name": "_amount",
          "type": "uint256"
        }
      ],
      "name": "transfer",
      "outputs": [],
      "stateMutability": "nonpayable",
      "type": "function"
    },
    {
      "inputs": [],
      "name": "balance",
      "outputs": [
        {
          "internalType": "uint256",
          "name": "",
          "type": "uint256"
        }
      ],
      "stateMutability": "view",
      "type": "function",
      "constant": true
    }
  ],
  "bytecode": "0x608060405234801561001057600080fd5b50336000806101000a81548173ffffffffffffffffffffffffffffffffffffffff021916908373ffffffffffffffffffffffffffffffffffffffff1602179055506104d2806100606000396000f3fe608060405234801561001057600080fd5b50600436106100415760003560e01c8063a0712d6814610046578063a9059cbb14610062578063b69ef8a81461007e575b600080fd5b610060600480360381019061005b91906102ee565b61009c565b005b61007c60048036038101906100779190610379565b61016e565b005b61008661026c565b60405161009391906103c8565b60405180910390f35b60008054906101000a900473ffffffffffffffffffffffffffffffffffffffff1673ffffffffffffffffffffffffffffffffffffffff163373ffffffffffffffffffffffffffffffffffffffff16146100f457600080fd5b80600160008060009054906101000a900473ffffffffffffffffffffffffffffffffffffffff1673ffffffffffffffffffffffffffffffffffffffff1673ffffffffffffffffffffffffffffffffffffffff16815260200190815260200160002060008282546101649190610412565b9250508190555050565b8080600160003373ffffffffffffffffffffffffffffffffffffffff1673ffffffffffffffffffffffffffffffffffffffff1681526020019081526020016000205410156101bb57600080fd5b81600160008573ffffffffffffffffffffffffffffffffffffffff1673ffffffffffffffffffffffffffffffffffffffff168152602001908152602001600020600082825461020a9190610412565b9250508190555081600160003373ffffffffffffffffffffffffffffffffffffffff1673ffffffffffffffffffffffffffffffffffffffff16815260200190815260200160002060008282546102609190610468565b92505081905550505050565b6000600160003373ffffffffffffffffffffffffffffffffffffffff1673ffffffffffffffffffffffffffffffffffffffff16815260200190815260200160002054905090565b600080fd5b6000819050919050565b6102cb816102b8565b81146102d657600080fd5b50565b6000813590506102e8816102c2565b92915050565b600060208284031215610304576103036102b3565b5b6000610312848285016102d9565b91505092915050565b600073ffffffffffffffffffffffffffffffffffffffff82169050919050565b60006103468261031b565b9050919050565b6103568161033b565b811461036157600080fd5b50565b6000813590506103738161034d565b92915050565b600080604083850312156103905761038f6102b3565b5b600061039e85828601610364565b92505060206103af858286016102d9565b9150509250929050565b6103c2816102b8565b82525050565b60006020820190506103dd60008301846103b9565b92915050565b7f4e487b7100000000000000000000000000000000000000000000000000000000600052601160045260246000fd5b600061041d826102b8565b9150610428836102b8565b9250827fffffffffffffffffffffffffffffffffffffffffffffffffffffffffffffffff0382111561045d5761045c6103e3565b5b828201905092915050565b6000610473826102b8565b915061047e836102b8565b925082821015610491576104906103e3565b5b82820390509291505056fea2646970667358221220b87ee9a956c64e3a56c921bda9584420f43794d83a89600238669d3a7fcc7c5d64736f6c634300080e0033",
  "immutableReferences": {},
  "source": "pragma solidity 0.8.14;\r\n\r\ncontract myEth{\r\n    \r\n    address private minter;\r\n    mapping (address=>uint) Balance;\r\n\r\n    constructor() {\r\n        minter = msg.sender;\r\n    }\r\n\r\n    modifier onlyMinter() {\r\n        require(msg.sender == minter);\r\n        _;\r\n    }\r\n\r\n    modifier checkBal(uint _amount){\r\n        require(Balance[msg.sender] >= _amount);\r\n        _;\r\n    }   \r\n\r\n    function mint(uint _amount) public onlyMinter(){\r\n        Balance[minter] += _amount;\r\n    }\r\n\r\n    function transfer(address _reciever,uint _amount) public checkBal(_amount){\r\n        Balance[_reciever] += _amount;\r\n        Balance[msg.sender] -= _amount;\r\n    }\r\n\r\n    function balance() public view returns(uint) {\r\n        return Balance[msg.sender];\r\n    }\r\n}",
  "sourcePath": "C:\\Users\\rajat\\OneDrive\\Desktop\\Blockchain\\Coin\\contracts\\myeth.sol",
  "compiler": {
    "name": "solc",
    "version": "0.8.14+commit.80d49f37.Emscripten.clang"
  },
  "schemaVersion": "3.4.7",
  "updatedAt": "2022-07-24T07:01:57.759Z",
  "networkType": "ethereum",
  "devdoc": {
    "kind": "dev",
    "methods": {},
    "version": 1
  },
  "userdoc": {
    "kind": "user",
    "methods": {},
    "version": 1
  }
}