{
  "contractName": "myEth",
  "abi": [
    {
      "inputs": [],
      "stateMutability": "nonpayable",
      "type": "constructor"
    },
    {
      "inputs": [
        {
          "internalType": "uint256",
          "name": "_amount",
          "type": "uint256"
        }
      ],
      "name": "mint",
      "outputs": [],
      "stateMutability": "nonpayable",
      "type": "function"
    },
    {
      "inputs": [
        {
          "internalType": "address",
          "name": "_reciever",
          "type": "address"
        },
        {
          "internalType": "uint256",
          "name": "_amount",
          "type": "uint256"
        }
      ],
      "name": "transfer",
      "outputs": [],
      "stateMutability": "nonpayable",
      "type": "function"
    },
    {
      "inputs": [
        {
          "internalType": "address",
          "name": "addr",
          "type": "address"
        }
      ],
      "name": "balance",
      "outputs": [
        {
          "internalType": "uint256",
          "name": "",
          "type": "uint256"
        }
      ],
      "stateMutability": "view",
      "type": "function",
      "constant": true
    }
  ],
  "bytecode": "0x608060405234801561001057600080fd5b50336000806101000a81548173ffffffffffffffffffffffffffffffffffffffff021916908373ffffffffffffffffffffffffffffffffffffffff160217905550610513806100606000396000f3fe608060405234801561001057600080fd5b50600436106100415760003560e01c8063a0712d6814610046578063a9059cbb14610062578063e3d670d71461007e575b600080fd5b610060600480360381019061005b9190610302565b6100ae565b005b61007c6004803603810190610077919061038d565b610180565b005b610098600480360381019061009391906103cd565b61027e565b6040516100a59190610409565b60405180910390f35b60008054906101000a900473ffffffffffffffffffffffffffffffffffffffff1673ffffffffffffffffffffffffffffffffffffffff163373ffffffffffffffffffffffffffffffffffffffff161461010657600080fd5b80600160008060009054906101000a900473ffffffffffffffffffffffffffffffffffffffff1673ffffffffffffffffffffffffffffffffffffffff1673ffffffffffffffffffffffffffffffffffffffff16815260200190815260200160002060008282546101769190610453565b9250508190555050565b8080600160003373ffffffffffffffffffffffffffffffffffffffff1673ffffffffffffffffffffffffffffffffffffffff1681526020019081526020016000205410156101cd57600080fd5b81600160008573ffffffffffffffffffffffffffffffffffffffff1673ffffffffffffffffffffffffffffffffffffffff168152602001908152602001600020600082825461021c9190610453565b9250508190555081600160003373ffffffffffffffffffffffffffffffffffffffff1673ffffffffffffffffffffffffffffffffffffffff168152602001908152602001600020600082825461027291906104a9565b92505081905550505050565b6000600160008373ffffffffffffffffffffffffffffffffffffffff1673ffffffffffffffffffffffffffffffffffffffff168152602001908152602001600020549050919050565b600080fd5b6000819050919050565b6102df816102cc565b81146102ea57600080fd5b50565b6000813590506102fc816102d6565b92915050565b600060208284031215610318576103176102c7565b5b6000610326848285016102ed565b91505092915050565b600073ffffffffffffffffffffffffffffffffffffffff82169050919050565b600061035a8261032f565b9050919050565b61036a8161034f565b811461037557600080fd5b50565b60008135905061038781610361565b92915050565b600080604083850312156103a4576103a36102c7565b5b60006103b285828601610378565b92505060206103c3858286016102ed565b9150509250929050565b6000602082840312156103e3576103e26102c7565b5b60006103f184828501610378565b91505092915050565b610403816102cc565b82525050565b600060208201905061041e60008301846103fa565b92915050565b7f4e487b7100000000000000000000000000000000000000000000000000000000600052601160045260246000fd5b600061045e826102cc565b9150610469836102cc565b9250827fffffffffffffffffffffffffffffffffffffffffffffffffffffffffffffffff0382111561049e5761049d610424565b5b828201905092915050565b60006104b4826102cc565b91506104bf836102cc565b9250828210156104d2576104d1610424565b5b82820390509291505056fea2646970667358221220bb71f02bee44e3ffe233b9883b376877fff9db57f1e9c5c9a227a315674dbe5b64736f6c634300080e0033",
  "immutableReferences": {},
  "source": "pragma solidity 0.8.14;\r\n\r\ncontract myEth{\r\n    \r\n    address private minter;\r\n    mapping (address=>uint) Balance;\r\n\r\n    constructor() {\r\n        minter = msg.sender;\r\n    }\r\n\r\n    modifier onlyMinter() {\r\n        require(msg.sender == minter);\r\n        _;\r\n    }\r\n\r\n    modifier checkBal(uint _amount){\r\n        require(Balance[msg.sender] >= _amount);\r\n        _;\r\n    }   \r\n\r\n    function mint(uint _amount) external onlyMinter(){\r\n        Balance[minter] += _amount;\r\n    }\r\n\r\n    function transfer(address _reciever,uint _amount) external checkBal(_amount){\r\n        Balance[_reciever] += _amount;\r\n        Balance[msg.sender] -= _amount;\r\n    }\r\n\r\n    function balance(address addr) external view returns(uint) {   \r\n        return Balance[addr];\r\n    }\r\n}\r\n",
  "sourcePath": "C:\\Users\\rajat\\OneDrive\\Desktop\\Blockchain\\Coin\\contracts\\myeth.sol",
  "compiler": {
    "name": "solc",
    "version": "0.8.14+commit.80d49f37.Emscripten.clang"
  },
  "schemaVersion": "3.4.7",
  "updatedAt": "2022-07-27T20:29:03.781Z",
  "networkType": "ethereum",
  "devdoc": {
    "kind": "dev",
    "methods": {},
    "version": 1
  },
  "userdoc": {
    "kind": "user",
    "methods": {},
    "version": 1
  }
}